:1000000029C0000042C0000040C000003EC0000007
:100010003CC000003AC00000A3C0000036C0000091
:1000200034C0000032C0000030C000002EC000000C
:100030002CC000002AC0000028C0000026C000001C
:1000400024C0000022C0000020C000001EC000002C
:100050001CC0000011241FBECFE5D4E0DEBFCDBF21
:1000600010E0A0E6B0E0EEE8F1E002C005900D92ED
:10007000AA39B107D9F710E0AAE9B0E001C01D9292
:10008000AC39B107E1F738D080C0BACFFC01128299
:1000900011821082089510BC83E389B980B58E68FF
:1000A00080BD8AB188618AB908955F9BFECF8CB10B
:1000B00008955D9BFECF6CB908950F931F93CF9366
:1000C000DF938C01EB019991992329F0692F6068E6
:1000D000C801EFDFF8CFDF91CF911F910F91089505
:1000E00089B7806189BF80E58FBD83E090E09BBDCB
:1000F0008ABD8BE08EBD0895CF93DF9300D01F9211
:10010000CDB7DEB7CE010196C1DFCE010196C3DFC8
:10011000E7DF8A98929ACE010196C7DF682FCE0159
:100120000196C7DF66E670E0CE010196C6DF69E89A
:1001300070E0CE010196C1DF789480919A00813001
:10014000E1F780919B00813019F465E970E002C00D
:1001500067E970E0CE010196B0DF10929A00EDCF12
:100160001F920F920FB60F9211248F9381E080930C
:100170009A0080B382FB882780F980939B008F913F
:0E0180000F900FBE0F901F901895F894FFCFB0
:10018E0000009C002000496E697469616C697A6197
:10019E0074696F6E207375636365737366756C2E09
:1001AE0020465F4350553A200038303030303030E2
:0A01BE00487A2E0A003100300000DC
:00000001FF
