:100000000C942A000C9434000C9434000C943400AA
:100010000C9434000C9434000C9434000C94340090
:100020000C9434000C9434000C9434000C94340080
:100030000C9434000C9434000C9434000C94340070
:100040000C9434000C9434000C9434000C94340060
:100050000C94340011241FBECFE5D4E0DEBFCDBF29
:100060000E9457000C9490000C940000CC990CC096
:100070008BE49DE10197F1F700C0000089B3829500
:10008000817091E08927089580E00895CD990DC091
:100090008BE49DE10197F1F700C0000089B385FB77
:1000A000882780F991E08927089580E008958AB330
:1000B0008E608ABB8BB380638BBBC0E001E010E035
:1000C000D3E08EE0F82E0E943600882379F081E09C
:1000D0008C0F9BB39801082E01C0220F0A94EAF7F7
:1000E00029272BBB6D2F0E948400C92F0E94460038
:1000F000882319F08BB38F258BBB87EA91E6019794
:10010000F1F700C00000DFCF991B79E004C0991F10
:10011000961708F0961B881F7A95C9F78095089561
:04012000F894FFCF81
:00000001FF
