:100000000C942A000C9447000C9447000C94470071
:100010000C9447000C9447000C9447000C94470044
:100020000C9447000C9447000C9447000C94470034
:100030000C9447000C9447000C9447000C94470024
:100040000C9447000C9447000C9447000C94470014
:100050000C94470011241FBECFE5D4E0DEBFCDBF16
:1000600010E0A0E6B0E0EAE1F3E002C005900D92F6
:10007000AA36B107D9F710E0AAE6B0E001C01D9298
:10008000AA37B107E1F70E945C010C948B010C9434
:10009000000087B38F6087BB88B3806F88BB84B351
:1000A0008FEF84BB0895EAE6F0E01082118212829D
:1000B00013820895EF92FF920F931F93CF93DF93D4
:1000C00000D000D0CDB7DEB780917800813009F044
:1000D000CDC080917600813039F48091720090918A
:1000E0007300883E934038F48091720090917300C1
:1000F0008031974268F086E880936A008FEA8093A7
:100100006B008FE280936C0080EC80936D00ACC03C
:100110008E010B5F1F4FE0E0F0E08AE0E82EF12C4B
:100120008091720090917300B7010E947701DC0109
:10013000A05ABF4F8C91D8018E938D01809172008F
:1001400090917300B7010E947701709373006093E0
:1001500072008091720090917300892B09F051C058
:100160009091770081E08E0F911118C023E030E06C
:1001700090EC843061F0F901E81BF10941E050E0B6
:100180004C0F5D1FE40FF51F90838F5FF2CF8091BE
:100190007600813081F58FEB89832DC043E050E0FC
:1001A0009FEF8430F1F020917400682F70E030E010
:1001B000082E02C0359527950A94E2F721303105C3
:1001C00071F020917900213051F4DA01A61BB70BB0
:1001D00021E030E02C0F3D1FA20FB31F9C938F5FD7
:1001E000E0CF80917600813031F4AE014E1B5F0B81
:1001F000FA018FEB838380E090E043E050E01FEF53
:1002000020C03196E430F10509F08ACFF4CF21E027
:1002100030E02C0F3D1F280F391FD9012C9120836E
:100220002091740030E002C0359527956A95E2F779
:1002300020FF03C020812F77208301968430910511
:1002400099F020917500BA01681B790B30E0062EF9
:1002500002C0359527950A94E2F7FC01E659FF4F55
:1002600020FFD5CF1083E9CF1092780080E090E096
:1002700061E070E04FEF9B01082E01C0220F0A944D
:10028000EAF7209528BBFC01E659FF4F208125BBEA
:10029000B2E4BA95F1F700C045BB019684309105F0
:1002A00051F70F900F900F900F90DF91CF911F910A
:1002B0000F91FF90EF9008950E94490081E0809394
:1002C000780029EE30E03093730020937200109292
:1002D000750098E090937400809376008093770087
:1002E000809379000E9453000E945A00FBCFAA1B02
:1002F000BB1B51E107C0AA1FBB1FA617B70710F011
:10030000A61BB70B881F991F5A95A9F78095909542
:0A031000BC01CD010895F894FFCF61
:0A031A00C0F9A4B0999282F8809017
:00000001FF
