:100000000C942A000C9447000C9447000C94470071
:100010000C9447000C9447000C948C010C944700FE
:100020000C9447000C9447000C9447000C94470034
:100030000C9447000C9447000C9447000C94470024
:100040000C9447000C9447000C9447000C94470014
:100050000C94470011241FBECFE5D4E0DEBFCDBF16
:1000600010E0A0E6B0E0E4E9F3E002C005900D92F4
:10007000A037B107D9F710E0A0E7B0E001C01D92AA
:10008000A337B107E1F70E943E010C94C8010C941C
:100090000000615021E030E0062E01C0220F0A94DA
:1000A000EAF7209522BB8BBB86EA8A95F1F700C060
:1000B000089581B38F6C81BB8AB38FEF8ABB08959B
:1000C00012BA1BBA08958FE082BB8FEF8BBB0895E5
:1000D0008A3030F4E82FF0E0EB59FF4F808101C007
:1000E00080E99EEF92BB96E89BBB96EA9A95F1F762
:1000F00000C09DEF92BB98E89BBB96EA9A95F1F7FA
:1001000000C09BEF92BB98E09BBB96EA9A95F1F7F3
:1001100000C097EF92BB8BBB86EA8A95F1F700C0CF
:100120000895CF92DF92EF92FF920F931F93CF9398
:10013000DF93CDB7DEB729970FB6F894DEBF0FBEB9
:10014000CDBF4D835E836F83372F788789878D81FD
:100150009E81462F713029F4883E23E0920738F0C3
:100160000CC0711104C08031A7E29A0730F4453009
:1001700020F4413099F4313089F480E029960FB6AB
:10018000F894DEBF0FBECDBFDF91CF911F910F91CD
:10019000FF90EF90DF90CF900C9468008E010B5F82
:1001A0001F4FE0E0F0E02AE0E22EF12CB7010E94C0
:1001B000B401DC01AB59BF4F8C91D8018E938D01F6
:1001C000CB010097B9F5998581E08E0FBE016F5F75
:1001D0007F4F911112C0A3E0B0E090EC843041F069
:1001E000FD01E81BF109E60FF71F90838F5FF6CF43
:1001F0003130C1F48FEB898315C003E010E09FEF2D
:10020000843041F0D801A81BB109A60FB71F9C93F9
:100210008F5FF6CF313031F4CB018E1B9F0BFC0189
:100220008FEB8283DE0111966D0100E010E0E42E79
:10023000F12C06C03196E430F10509F0B7CFF2CFCA
:10024000F60181916F010F5F1F4FE016F10609F46F
:100250008F77602F0E9449000430110589F7299695
:100260000FB6F894DEBF0FBECDBFDF91CF911F91C7
:100270000F91FF90EF90DF90CF900895CF93DF9391
:1002800000D000D01F92CDB7DEB70E9459000E9467
:10029000670185E0E0E6F0E0DE01119601900D9245
:1002A0008A95E1F78091710090917200482F9A83AE
:1002B00089835A816B817C818D810E949100849910
:1002C0000E947F01859BEECF0E947A01EBCF78944C
:1002D00089B7806189BF80E58FBD89E090E09BBDD3
:1002E0008ABD8DE08EBD1092720010927100109246
:1002F000700008951092720010927100089590910C
:10030000700081E0891B8093700087EA91E6019775
:10031000F1F700C0000008951F920F920FB60F92E0
:1003200011242F938F939F9380917000813049F413
:100330008091710090917200019690937200809369
:10034000710080917100909172008031974220F08D
:1003500010927200109271009F918F912F910F90C7
:100360000FBE0F901F901895AA1BBB1B51E107C031
:10037000AA1FBB1FA617B70710F0A61BB70B881F35
:10038000991F5A95A9F780959095BC01CD010895C4
:04039000F894FFCF0F
:100394000000020001C0F9A4B0999282F880900094
:00000001FF
