:100000000C942A000C9447000C9447000C94470071
:100010000C9447000C9447000C948C010C944700FE
:100020000C9447000C9447000C9447000C94470034
:100030000C9447000C9447000C9447000C94470024
:100040000C9447000C9447000C9447000C94470014
:100050000C94470011241FBECFE5D4E0DEBFCDBF16
:1000600010E0A0E6B0E0E6E3F6E002C005900D92F5
:10007000AA36B107D9F710E0AAE6B0E001C01D9298
:10008000A438B107E1F70E94DA020C9419030C942A
:100090000000789489B7806189BF80E58FBD81E6D3
:1000A00090E09BBD8ABD8DE08EBDEFE7F0E08BE078
:1000B00080838BE3818382E382831382E6E7F0E02F
:1000C000118210821482158284E08283138281E07F
:1000D0008683178210927E000895EFE7F0E08BE0B0
:1000E00080838BE3818382E38283138210927E007C
:1000F000089580918300882309F45AC010927700F4
:100100001092760020917F0080917F0030E04AE0DD
:10011000642F0E94E502291B310954E6529FC00159
:10012000539F900D112490937700809376008091D7
:100130007F000E94E502292F809176009091770040
:1001400034E6239F800D911D1124909377008093B6
:1001500076009091800080918000E0917600F0918F
:100160007700292F30E00E94E502291B31092E0F6C
:100170003F1F30937700209376008091800020917C
:100180007600309177000E94E502290F311D3093EF
:100190007700209376008091810080FF04C084E086
:1001A0008093780002C01092780081E080937C00F8
:1001B00008950E9479000C94D801FF920F931F9329
:1001C000CF93DF938091820090E005966AE070E023
:1001D0000E940503C82F809182008C1719F00E949D
:1001E000D900F9CFC8E1D0E00AE010E0B4991DC011
:1001F000B59B18C080917F0090E00196BE010E94DF
:10020000050380937F008091820090E00596B801FD
:100210000E940503F82E809182008F1519F00E942C
:10022000D900F9CF0E94D900E1CF10927E008091D1
:10023000820090E005966AE070E00E940503C82FF6
:10024000809182008C1719F00E94D900F9CFDF91BC
:10025000CF911F910F91FF900895FF920F931F93DD
:10026000CF93DF938091820090E005966AE070E082
:100270000E940503C82F809182008C1719F00E94FC
:10028000D900F9CFCAE0D0E00CE310E0B4991FC068
:10029000B59B1AC08091820090E00596BE010E9435
:1002A0000503F82E809182008F1529F0B49903C0C0
:1002B0000E94D900F7CF8091800090E00196B801AC
:1002C0000E940503809380000E94D900DFCF8091B7
:1002D000820090E005966AE070E00E940503C82F56
:1002E000809182008C1719F00E94D900F9CFDF911C
:1002F000CF911F910F91FF90089580917E008130E2
:1003000029F040F0823021F40C942D010C94DD0092
:1003100010927E000C94D9001F920F920FB60F928C
:1003200011248F93809182008F5F8093820080914F
:1003300082008A3031F510928200809181008F5FB7
:100340008093810081E080938300809181008C33D1
:10035000C1F410928100809180008F5F80938000B3
:10036000809180008C3369F41092800080917F002E
:100370008F5F80937F0080917F00883111F410920D
:100380007F008F910F900FBE0F901F90189587B32D
:100390008F6087BB88B3806F88BB84B38FEF84BBCB
:1003A0000895EEE6F0E01082118212821382089521
:1003B000EF92FF920F931F93CF93DF9300D000D063
:1003C000CDB7DEB780917C00813009F0CDC080913F
:1003D0007A00813039F48091760090917700883EE0
:1003E000934038F480917600909177008031974265
:1003F00068F086E880936E008FEA80936F008FE24A
:100400008093700080EC80937100ACC08E010B5F14
:100410001F4FE0E0F0E08AE0E82EF12C80917600BA
:1004200090917700B7010E94F102DC01A05ABF4F02
:100430008C91D8018E938D018091760090917700F8
:10044000B7010E94F102709377006093760080916B
:10045000760090917700892B09F051C090917B0034
:1004600081E08E0F911118C023E030E090EC8430D1
:1004700061F0F901E81BF10941E050E04C0F5D1F0C
:10048000E40FF51F90838F5FF2CF80917A00813067
:1004900081F58FEB89832DC043E050E09FEF8430DE
:1004A000F1F020917800682F70E030E0082E02C053
:1004B000359527950A94E2F72130310571F02091A6
:1004C0007D00213051F4DA01A61BB70B21E030E0AA
:1004D0002C0F3D1FA20FB31F9C938F5FE0CF809125
:1004E0007A00813031F4AE014E1B5F0BFA018FEBC5
:1004F000838380E090E043E050E01FEF20C031961E
:10050000E430F10509F08ACFF4CF21E030E02C0F80
:100510003D1F280F391FD9012C912083209178008D
:1005200030E002C0359527956A95E2F720FF03C0B9
:1005300020812F77208301968430910599F02091B6
:100540007900BA01681B790B30E0062E02C03595A0
:1005500027950A94E2F7FC01E259FF4F20FFD5CF1F
:100560001083E9CF10927C0080E090E061E070E0C1
:100570004FEF9B01082E01C0220F0A94EAF7209545
:1005800028BBFC01E259FF4F208125BBB2E4BA959C
:10059000F1F700C045BB01968430910551F70F90EB
:1005A0000F900F900F90DF91CF911F910F91FF90BF
:1005B000EF9008950E94C7010E9449000E947D01AA
:1005C000B599FCCF0E946D00F9CF991B79E004C06A
:1005D000991F961708F0961B881F7A95C9F7809582
:1005E0000895AA1BBB1B51E107C0AA1FBB1FA6177A
:1005F000B70710F0A61BB70B881F991F5A95A9F7CC
:1006000080959095BC01CD01089597FB072E16F4B7
:10061000009407D077FD09D00E94F10207FC05D0B5
:100620003EF4909581959F4F0895709561957F4F09
:060630000895F894FFCFCD
:0A063600C0F9A4B0999282F88090F8
:00000001FF
