:1000000029C000002FC000002DC000002BC0000040
:1000100029C0000027C0000025C0000023C0000048
:1000200021C000001FC000001DC000001BC0000058
:1000300019C0000017C0000015C0000013C0000068
:1000400011C000000FC000000DC000000BC0000078
:1000500009C0000011241FBECFE5D4E0DEBFCDBF34
:100060009AD0DAC0CDCFFC0181E084838283818382
:1000700080838383168215821086178212861186EA
:10008000138614860895CF92EF920F93FC01708728
:1000900067835683458321870287E386C4860F9151
:1000A000EF90CF900895FC011DB88DB1648120E4DC
:1000B000629FA0011124908130E2939FB00111242E
:1000C000642B682B938180E1989FA0011124862FD7
:1000D000842B918148E0949F90011124282B9281D8
:1000E00034E0939FC0011124822B8DB9A781B08584
:1000F0003C9181E090E0BC01018402C0660F771F53
:100100000A94E2F7AC01028402C0440F551F0A941E
:10011000E2F7262F242B232B2C932381A781B08554
:10012000222341F02C91038402C0880F991F0A9466
:10013000E2F707C02C91048402C0880F991F0A942B
:10014000E2F7822B8C938EB18FB10895FC0160830E
:100150000895FC01A581B6818C9121E030E00184F5
:1001600002C0220F331F0A94E2F7209528232C9314
:100170006FB9779BFECFA581B6814C9121E030E02D
:10018000C901018402C0880F991F0A94E2F7842BE9
:100190008C938FB10895CF93DF93CDB7DEB72D97B2
:1001A0000FB6F894DEBF0FBECDBFCE0101965BDF68
:1001B00086E0C82E95E0E92E07E024E048E350E011
:1001C00067E370E0CE0101965EDF60E0CE0101964C
:1001D000BDDFCE01019667DF01E010E0EE24E3947D
:1001E000F12C173021F0111103C001E001C00FEF15
:1001F000100FB701012E01C0660F0A94EAF7CE0175
:100200000196A7DF2FE788E391E0215080409040DE
:0C021000E1F700C00000E5CFF894FFCF3C
:00000001FF
