:1000000029C0000042C0000040C000003EC0000007
:100010003CC000003AC0000038C0000036C00000FC
:1000200034C0000032C0000030C000002EC000000C
:100030002CC000002AC0000028C0000026C000001C
:1000400024C0000022C0000020C000001EC000002C
:100050001CC0000011241FBECFE5D4E0DEBFCDBF21
:1000600010E0A0E6B0E0EAE0F1E002C005900D92F9
:10007000A437B107D9F710E0A4E7B0E001C01D92A2
:10008000A437B107E1F72AD03EC0BACFFC011282F3
:1000900011821082089510BC85E089B980B5866808
:1000A00080BD8AB188618AB908955F9BFECF8CB10B
:1000B00008955D9BFECF6CB908950F931F93CF9366
:1000C000DF938C01EB016991662319F0C801F1DF20
:1000D000FACFDF91CF911F910F910895CF93DF93C6
:1000E00000D01F92CDB7DEB7CE010196CFDFCE0193
:1000F0000196D1DFCE010196D8DF66E670E0CE0131
:0A0100000196DBDFFFCFF894FFCF7C
:10010A0000007400200050726F6772616D20696E82
:04011A006974000004
:00000001FF
