:1000000029C0000042C0000040C000003EC0000007
:100010003CC000003AC0000038C0000036C00000FC
:1000200034C0000032C0000030C000002EC000000C
:100030002CC000002AC0000028C0000026C000001C
:1000400024C0000022C0000020C000001EC000002C
:100050001CC0000011241FBECFE5D4E0DEBFCDBF21
:1000600011E0A0E6B0E0E2E4FDE002C005900D92F0
:10007000AA34B107D9F711E0AAE4B1E001C01D929A
:10008000AE34B107E1F743D25AC6BACFFC011282AF
:10009000118210820895FC0180819181009709F0FE
:1000A00000C3089510BC83E389B980B58E6880BD14
:1000B0008AB188618AB908955F9BFECF8CB108959B
:1000C0005D9BFECF6CB908950F931F93CF93DF9381
:1000D0008C01EB019991992329F0692F6068C8017F
:1000E000EFDFF8CFDF91CF911F910F910895EF923D
:1000F000FF920F931F93CF93DF93CDB7DEB72A976D
:100100000FB6F894DEBF0FBECDBF7C017F936F9317
:1001100026E630E03F932F938E010F5F1F4F1F9312
:100120000F934ED3B801C701CFDF0F900F900F9000
:100130000F900F900F902A960FB6F894DEBF0FBE67
:10014000CDBFDF91CF911F910F91FF90EF90089558
:10015000FC0181E0848312821182108283831682E3
:1001600015821086178212861186138614860895CA
:10017000CF92EF920F93FC0170876783568345837C
:1001800021870287E386C4860F91EF90CF90089570
:10019000FC011DB88DB1648120E4629FA00111248F
:1001A000908130E2939FB0011124642B682B9381DE
:1001B00080E1989FA0011124862F842B918148E033
:1001C000949F90011124282B928134E0939FC001C9
:1001D0001124822B8DB9A781B0853C9181E090E0FC
:1001E000BC01018402C0660F771F0A94E2F7AC01DC
:1001F000028402C0440F551F0A94E2F7262F242BD5
:10020000232B2C932381A781B085222341F02C91AD
:10021000038402C0880F991F0A94E2F707C02C914B
:10022000048402C0880F991F0A94E2F7822B8C93F2
:100230008EB18FB10895FC0160830895FC014423C1
:1002400011F06FB920C0A581B6818C9121E030E01A
:10025000018402C0220F331F0A94E2F7209528235D
:100260002C936FB9779BFECF6FB1A581B6814C916E
:1002700021E030E0C901018402C0880F991F0A946F
:10028000E2F7842B8C93862F0895FC0184818823C8
:1002900071F0A581B6814C9121E030E0C901018463
:1002A00002C0880F991F0A94E2F7842B8C9308955B
:1002B000CF92EF920F93CF93DF93EC0149DF188A2F
:1002C0001F861E861D8681E0898B86E0C82E95E0FC
:1002D000E92E07E024E048E350E067E370E0CE0158
:1002E00047DF60E0CE01A7DFCE0152DF8989882396
:1002F00039F08D859E85009719F06BE670E0E4DE9D
:1003000080E290E036D1988B8F878989882361F0CD
:100310008D859E85009741F061E870E0DF91CF9177
:100320000F91EF90CF90D0CEDF91CF910F91EF90C2
:10033000CF9008958F929F92AF92BF92EF92FF92CB
:100340000F931F93CF93DF93EC0149015A0140E0D3
:1003500075DF6B2D77278827992740E0CE016EDF68
:10036000B5018827992740E0CE0168DF99278B2DBA
:100370007A2D692D40E0CE0161DF40E0682DCE018D
:100380005DDF40E0602FCE0159DFF12C00E010E08E
:100390000E151F0569F0AF84B888A00EB11E40E0AD
:1003A0006FEFCE014BDFF50180830F5F1F4FF0CF62
:1003B0008989882361F18D859E85009741F16AE9DD
:1003C00070E082DE00E010E00E151F0589F0EF8579
:1003D000F889E00FF11F608170E08D859E8587DED2
:1003E00067EB70E08D859E856FDE0F5F1F4FECCF52
:1003F00067E171E08D859E85DF91CF911F910F910F
:10040000FF90EF90BF90AF909F908F905DCEDF9167
:10041000CF911F910F91FF90EF90BF90AF909F9061
:100420008F900895EF920F931F93CF93DF93EC017A
:100430002CDF0AE010E08989882361F08D859E8594
:10044000009741F069EB70E03FDE6FEF70E08D8563
:100450009E854DDE41E06FEFCE01F0DE8989882375
:1004600039F08D859E85009719F067EC70E02CDEE1
:100470000150110901F78989882339F08D859E85FE
:10048000009719F067ED70E01FDE1AE08989882374
:1004900039F08D859E85009719F066EF70E014DEC7
:1004A00088E0E82E05E920E030E0A90160E4CE0113
:1004B00041DF8989882339F08D859E85009719F061
:1004C00069E171E001DE2FEF80E792E0215080408A
:1004D0009040E1F700C000001150C1F689898823DF
:1004E00061F08D859E85009741F068E271E0DF91B3
:1004F000CF911F910F91EF90E7CDDF91CF911F9199
:100500000F91EF900895FC01768765870895CF934A
:10051000DF93CDB7DEB765970FB6F894DEBF0FBE99
:10052000CDBFCE010196C4DECE014396AFDDCE0134
:100530004396B8DDBE016D5E7F4FCE010196E3DFCD
:10054000CE014396B9DDCE0101966CDF69E371E01F
:10055000CE014396B9DDCE0143969DDD80E090E06B
:1005600065960FB6F894DEBF0FBECDBFDF91CF9179
:100570000895CF93DF938230910510F482E090E0EC
:10058000E0914C01F0914D0120E030E0A0E0B0E0BE
:10059000309739F14081518148175907B8F0481711
:1005A000590771F482819381109729F013969C93D7
:1005B0008E9312972CC090934D0180934C0127C0CD
:1005C0002115310531F04217530718F0A901DB015D
:1005D00001C0EF019A01BD01DF010280F381E02D2E
:1005E000D7CF21153105F9F0281B390B24303105FF
:1005F00080F48A819B816115710521F0FB01938351
:10060000828304C090934D0180934C01FE01329689
:1006100044C0FE01E20FF31F8193919322503109F0
:10062000398328833AC020914A0130914B01232B12
:1006300041F4209162003091630030934B0120938C
:100640004A0120916000309161002115310541F48B
:100650002DB73EB74091640050916500241B350BC7
:10066000E0914A01F0914B01E217F307A0F42E1B31
:100670003F0B2817390778F0AC014E5F5F4F241706
:10068000350748F04E0F5F1F50934B0140934A01CE
:100690008193919302C0E0E0F0E0CF01DF91CF9130
:1006A0000895CF93DF93009709F487C0FC01329738
:1006B00013821282C0914C01D0914D01209781F498
:1006C00020813181280F391F80914A0190914B017F
:1006D0008217930779F5F0934B01E0934A016DC0BF
:1006E000DE0120E030E0AE17BF0750F412964D91C6
:1006F0005C9113979D014115510509F1DA01F3CF82
:10070000B383A28340815181840F951F8A179B0771
:1007100071F48D919C911197840F951F029691838E
:10072000808312968D919C911397938382832115D8
:10073000310529F4F0934D01E0934C013EC0D901FD
:100740001396FC93EE9312974D915D91A40FB51FF4
:10075000EA17FB0779F480819181840F951F029637
:10076000D90111969C938E938281938113969C93C9
:100770008E931297E0E0F0E08A819B81009719F058
:10078000FE01EC01F9CFCE01029628813981820F5A
:10079000931F20914A0130914B012817390769F4C2
:1007A000309729F410924D0110924C0102C013822F
:1007B0001282D0934B01C0934A01DF91CF910895EB
:1007C000AEE0B0E0E5EEF3E091C20D891E8986E06F
:1007D0008C831A8309838FEF9FE79E838D83AE01FD
:1007E000475E5F4F6F89788DCE01019608D0EF810B
:1007F000F885E00FF11F10822E96E4E093C2ACE082
:10080000B0E0E4E0F4E064C27C016B018A01FC0129
:1008100017821682838181FFB0C1CE0101964C01FF
:10082000F7019381F60193FD859193FF81916F010B
:10083000882309F49EC1853239F493FD859193FF95
:1008400081916F01853221F4B70190E0B1D1E8CFF9
:10085000512C312C20E02032A0F48B3269F030F49E
:10086000803259F0833269F420612CC08D3239F026
:10087000803339F4216026C02260246023C02860C0
:1008800021C027FD27C030ED380F3A3078F426FF1D
:1008900006C0FAE05F9E300D1124532E13C08AE08B
:1008A000389E300D1124332E20620CC08E3221F47C
:1008B00026FD5FC1206406C08C3611F4206802C09A
:1008C000883641F4F60193FD859193FF81916F0184
:1008D0008111C1CF982F9F7D9554933028F40C5FE0
:1008E0001F4FFFE3F9830DC0833631F0833771F07A
:1008F000833509F057C021C0F801808189830E5FDC
:100900001F4F44244394512C540114C03801F2E089
:100910006F0E711CF801A080B18026FF03C0652D09
:1009200070E002C06FEF7FEFC5012C8736D12C013C
:1009300083012C852F77222E16C03801F2E06F0E2E
:10094000711CF801A080B18026FF03C0652D70E006
:1009500002C06FEF7FEFC5012C8714D12C012C85CD
:100960002068222E830123FC19C0832D90E04816B5
:100970005906A0F4B70180E290E01AD13A94F5CF7D
:10098000F50127FC859127FE81915F01B70190E079
:100990000FD131103A94F1E04F1A5108411451042B
:1009A00079F7DEC0843611F0893631F5F80127FF7A
:1009B00007C060817181828193810C5F1F4F08C0E5
:1009C00060817181882777FD8095982F0E5F1F4F7A
:1009D0002F76B22E97FF09C09095809570956195FE
:1009E0007F4F8F4F9F4F2068B22E2AE030E0A40146
:1009F00011D1A82EA81843C0853729F42F7EB22E16
:100A00002AE030E025C0F22FF97FBF2E8F36C1F0EB
:100A100018F4883579F0ADC0803719F0883721F0A7
:100A2000A8C02F2F2061B22EB4FE0DC08B2D846084
:100A3000B82E09C024FF0AC09F2F9660B92E06C0A9
:100A400028E030E005C020E130E002C020E132E0E3
:100A5000F801B7FE07C060817181828193810C5FCC
:100A60001F4F06C06081718180E090E00E5F1F4FD4
:100A7000A401D0D0A82EA818FB2DFF77BF2EB6FE5C
:100A80000BC02B2D2E7FA51450F4B4FE0AC0B2FC6F
:100A900008C02B2D2E7E05C07A2C2B2D03C07A2C5E
:100AA00001C0752C24FF0DC0FE01EA0DF11D8081EF
:100AB000803311F4297E09C022FF06C07394739419
:100AC00004C0822F867809F0739423FD12C020FFA2
:100AD00006C05A2C731418F4530C5718732C731443
:100AE00060F4B70180E290E02C8762D073942C858B
:100AF000F6CF731410F4371801C0312C24FF11C045
:100B0000B70180E390E02C8753D02C8522FF16C0DC
:100B100021FF03C088E590E002C088E790E0B701BC
:100B20000CC0822F867851F021FD02C080E201C006
:100B30008BE227FD8DE2B70190E03AD0A51430F4A6
:100B4000B70180E390E034D05A94F8CFAA94F4012E
:100B5000EA0DF11D8081B70190E02AD0A110F6CFF7
:100B6000332009F45DCEB70180E290E021D03A94C1
:100B7000F7CFF7018681978102C08FEF9FEF2C9608
:100B8000E2E1C2C0FC010590615070400110D8F74D
:100B9000809590958E0F9F1F0895FC0161507040C5
:100BA00001900110D8F7809590958E0F9F1F0895A2
:100BB0000F931F93CF93DF93182F092FEB018B8196
:100BC00081FD03C08FEF9FEF20C082FF10C04E81D8
:100BD0005F812C813D81421753077CF4E881F981C4
:100BE0009F012F5F3F4F39832883108306C0E8851C
:100BF000F985812F0995892B29F72E813F812F5F58
:100C00003F4F3F832E83812F902FDF91CF911F91F4
:100C10000F910895FA01AA27283051F1203181F16E
:100C2000E8946F936E7F6E5F7F4F8F4F9F4FAF4FF4
:100C3000B1E03ED0B4E03CD0670F781F891F9A1F07
:100C4000A11D680F791F8A1F911DA11D6A0F711DBB
:100C5000811D911DA11D20D009F468943F912AE0C7
:100C6000269F11243019305D3193DEF6CF010895AF
:100C7000462F4770405D4193B3E00FD0C9F7F6CFE0
:100C8000462F4F70405D4A3318F0495D31FD4052A8
:100C9000419302D0A9F7EACFB4E0A695979587953E
:100CA00077956795BA95C9F700976105710508951D
:100CB0009B01AC010A2E06945795479537952795C9
:100CC000BA95C9F7620F731F841F951FA01D089561
:100CD0002F923F924F925F926F927F928F929F924C
:100CE000AF92BF92CF92DF92EF92FF920F931F933A
:100CF000CF93DF93CDB7DEB7CA1BDB0B0FB6F894EB
:100D0000DEBF0FBECDBF09942A88398848885F842A
:100D10006E847D848C849B84AA84B984C884DF809B
:100D2000EE80FD800C811B81AA81B981CE0FD11D7F
:100D30000FB6F894DEBF0FBECDBFED010895F89455
:020D4000FFCFE3
:100D420000004E0120003078255800535049206998
:100D52006E6974207375636365737366756C2E0AAE
:100D62000042756666657220696E697420737563E8
:100D72006365737366756C2E0A0053656E74206327
:100D82006F6D6D616E6420746F2073642E205265E6
:100D920073706F6E73653A200053656E64696E6797
:100DA200206279746520002E2E2E204279746520EF
:100DB20073656E742E0A00534420676976656E204F
:100DC2003830207469636B73207375636365737362
:100DD20066756C2E0A0053656E64696E6720307802
:100DE200343020307830303030303030302030788D
:100DF20039352C2072382E0A00436F6D6D616E6496
:100E02002073656E742E0A00534420696E69742043
:100E12006661696C65642E0A00496E66696E697462
:0A0E220065206C6F6F702E0A00004F
:00000001FF
