:100000000C942A000C9447000C9447000C94470071
:100010000C9447000C9447000C94DD000C944700AE
:100020000C9447000C9447000C9447000C94470034
:100030000C9447000C9447000C9447000C94470024
:100040000C9447000C9447000C9447000C94470014
:100050000C94470011241FBECFE5D4E0DEBFCDBF16
:1000600010E0A0E6B0E0E4E9F4E002C005900D92F3
:10007000AA36B107D9F710E0AAE6B0E001C01D9298
:10008000AD36B107E1F70E94FF010C9448020C94D1
:100090000000789489B7806189BF80E58FBD80EDCD
:1000A00093E09BBD8ABD8DE08EBD10926C001092D6
:1000B0006A0010926B00089510926C0010926A0012
:1000C00010926B000895CF93DF9300D000D01F9261
:1000D000CDB7DEB780916C0020916A0030E094E6E5
:1000E000899F200D311D112480916B0080FD02C07D
:1000F00040E001C042E03A8329833A8150E060E069
:1001000070E080E090E00F900F900F900F900F90B4
:10011000DF91CF91089530916C0020916A004FE9F2
:1001200086E891E0415080409040E1F700C0000037
:10013000E8E1F0E0849913C0859BFCCF4FE986E8A5
:1001400091E0415080409040E1F700C00000832FD3
:1001500090E00196BF010E943402382FEBCF4FE9A7
:1001600086E891E0415080409040E1F700C00000F7
:10017000E8E1F0E0849913C0859BFCCF4FE986E865
:1001800091E0415080409040E1F700C00000822F94
:1001900090E00196BF010E943402282FEBCF3093EC
:1001A0006C0020936A002FE946E881E0215040402E
:1001B0008040E1F700C0000008951F920F920FB633
:1001C0000F9211248F9380916B008F5F80936B004F
:1001D00080916B008C33C1F410926B0080916A00A7
:1001E0008F5F80936A0080916A008C3369F410926B
:1001F0006A0080916C008F5F80936C0080916C002E
:10020000883111F410926C008F910F900FBE0F90F7
:100210001F901895615021E030E0062E01C0220F9A
:100220000A94EAF7209522BB8BBB86EA8A95F1F700
:1002300000C0089581B38F6C81BB8AB38FEF8ABBF6
:10024000089512BA1BBA08958FE082BB8FEF8BBB63
:1002500008958A3030F4E82FF0E0E05AFF4F8081B3
:1002600001C080E99EEF92BB96E89BBB96EA9A9507
:10027000F1F700C09DEF92BB98E89BBB96EA9A9578
:10028000F1F700C09BEF92BB98E09BBB96EA9A9572
:10029000F1F700C097EF92BB8BBB86EA8A95F1F726
:1002A00000C00895CF92DF92EF92FF920F931F93B9
:1002B000CF93DF93CDB7DEB729970FB6F894DEBFA3
:1002C0000FBECDBF4D835E836F83372F78878987BD
:1002D0008D819E81462F713029F4883E23E092075C
:1002E00038F00CC0711104C08031A7E29A0730F4D5
:1002F000453020F4413099F4313089F480E029967A
:100300000FB6F894DEBF0FBECDBFDF91CF911F9126
:100310000F91FF90EF90DF90CF900C9429018E0108
:100320000B5F1F4FE0E0F0E02AE0E22EF12CB70176
:100330000E942002DC01A05ABF4F8C91D8018E93FD
:100340008D01CB010097B9F5998581E08E0FBE0133
:100350006F5F7F4F911112C0A3E0B0E090EC84304A
:1003600041F0FD01E81BF109E60FF71F90838F5F55
:10037000F6CF3130C1F48FEB898315C003E010E074
:100380009FEF843041F0D801A81BB109A60FB71F19
:100390009C938F5FF6CF313031F4CB018E1B9F0BD6
:1003A000FC018FEB8283DE0111966D0100E010E00D
:1003B000E42EF12C06C03196E430F10509F0B7CFF8
:1003C000F2CFF60181916F010F5F1F4FE016F1062A
:1003D00009F48F77602F0E940A010430110589F714
:1003E00029960FB6F894DEBF0FBECDBFDF91CF9137
:1003F0001F910F91FF90EF90DF90CF900895CF93D2
:10040000DF9300D000D01F92CDB7DEB70E941A0153
:100410000E9449000E946300942F752F862F298324
:100420003A834B835C836D83A901692F0E9452013B
:1004300084990E948B00859BEDCF0E945C00EACFDF
:10044000AA1BBB1B51E107C0AA1FBB1FA617B707FA
:1004500010F0A61BB70B881F991F5A95A9F7809516
:100460009095BC01CD01089597FB072E16F40094DA
:1004700007D077FD09D00E94200207FC05D03EF48A
:10048000909581959F4F0895709561957F4F089540
:04049000F894FFCF0E
:0A049400C0F9A4B0999282F880909C
:00000001FF
