:1000000029C0000042C0000040C000003EC0000007
:100010003CC000003AC0000038C0000036C00000FC
:1000200034C0000032C0000030C000002EC000000C
:100030002CC000002AC0000028C0000026C000001C
:1000400024C0000022C0000020C000001EC000002C
:100050001CC0000011241FBECFE5D4E0DEBFCDBF21
:1000600010E0A0E6B0E0ECEEF5E002C005900D92E5
:10007000AE37B107D9F710E0AEE7B0E001C01D928E
:10008000AE37B107E1F7BCD1AFC2BACFC198662392
:1000900011F0C09A01C0C0989BB3907F892B8BBB95
:1000A000C29AC2980895C19A9AB3907F9ABB882346
:1000B00011F0C09A01C0C098C29A000089B3C298DA
:1000C0009AB39F609ABBC1988F700895CF93DF93C6
:1000D000C82FD62F82958F70D9DF6D2F8C2F8F7000
:1000E000DF91CF91D3CFCF93DF93C82FDCDFD82F11
:1000F000D295D07F8C2FD7DF8D2BDF91CF910895B4
:1001000080E0F1DF87FDFCCF0895B89AB99ABA9ADA
:100110008AB38F608ABB85EA9EE00197F1F700C041
:10012000000060E083E0B2DF80E094E00197F1F747
:1001300000C0000060E083E0A9DF91E29A95F1F74A
:10014000000060E083E0A2DF8CE08A95F1F7000018
:1001500060E082E09BDF80E0D3DF60E088E2B6DF32
:1001600080E0CEDF60E088E0B1DF80E0C9CFFC0155
:100170001082118281E082838383868315821482B8
:100180000895CF93DF93EC01C0DF60E081E09EDF54
:1001900081E0B6DF60E086E099DF80E0B1DF8A8150
:1001A000811102C08CE001C08EE09B8160E0892B50
:1001B0008DDF80E0A5DF8C81811102C080E201C06B
:1001C00080E39E81911198E0892B9D81911194E0AB
:1001D00060E0892B7BDF80E093DF18821982DF915A
:1001E000CF9108950F931F93CF93DF936230E0F484
:1001F0004832D0F4FC012081241303C0218126174A
:1002000099F0042F162FEC01842FF0E46F9F800DDE
:10021000112460E080685ADF0883198380E0DF9151
:10022000CF911F910F916CCFDF91CF911F910F91C3
:100230000895CF93DF936A3059F4FC01218140E0A7
:10024000213011F460E001C061E0DF91CF91CACFAD
:10025000262FEC0161E0822F39DF8881873218F484
:100260008F5F888307C01882898190E00196817032
:100270009927898380E0DF91CF9142CFEF92FF925F
:100280000F931F93CF93DF931F92CDB7DEB78C01EF
:100290007B01F70161917F01662389F0C8014983E1
:1002A000C8DF49814423A9F390E0E9EFF0E03197FA
:1002B000F1F700C000009F5F9413F7CFEACF0F90D3
:1002C000DF91CF911F910F91FF90EF9008952F92A2
:1002D0003F924F925F926F927F928F929F92AF92D6
:1002E000BF92CF92DF92EF92FF920F931F93CF9323
:1002F000DF93CDB7DEB75C012A013B01022F2DB69B
:100300003EB677FF09C022273327A90124193509F2
:100310004609570912E003C09A01AB0111E08AE0D7
:10032000C82ED12CE12CF12CCA01B901A7019601EC
:1003300030D1211531054105510511F01F5FF4CF72
:10034000C12ED12CC60101962DB73EB7281B390B03
:100350000FB6F8943EBF0FBE2DBF8DB79EB7019666
:100360007C01B301A20177FE07C044275527BA01DB
:1003700044195509660977099A01CB01112391F0B7
:100380004701810E911CE1E08E1A9108B9012AE023
:1003900030E040E050E0FDD0605DF401608311503A
:1003A000CA01ECCF77FE03C08DE2F7018083F7012D
:1003B000EC0DFD1D1082402FB701C5015FDF0FB6A8
:1003C000F8943EBE0FBE2DBEDF91CF911F910F91CD
:1003D000FF90EF90DF90CF90BF90AF909F908F9065
:1003E0007F906F905F904F903F902F900895FC0109
:1003F000628343830895FC016483468325830895C3
:10040000CF93DF93CDB7DEB728970FB6F894DEBF52
:100410000FBECDBF8F9A80E882BBCE010196A7DECA
:1004200040E061E0CE010196E2DF21E041E060E0E2
:10043000CE010196E0DFCE010196A3DE40E060E64A
:1004400070E0CE0101961ADF812C912C540121E03D
:100450002887C12CD12C760108EE13E0A2E3B0E08E
:10046000A50194016AD06C157D058E059F0509F0E4
:1004700043C020E2C2162EE4D206E104F10448F49F
:1004800029EEC21623E0D206E104F10420F421E0B3
:1004900001C02FEF2887288520036001219FD00C01
:1004A0001124EE24D7FCE094FE2CC60ED71EE81EC5
:1004B000F91E40E068E670E0CE010196DFDE20E044
:1004C00040E452E46FE070E0CE01019600DF40E0CE
:1004D0006FE670E0CE010196D1DE20E0B701A60103
:1004E000CE010196F4DE40E069E770E0CE010196AE
:1004F000C5DE812C912C540182B3809582BB60E4CF
:1005000072E48FE090E0A7019601220F331F441F91
:10051000551F1DD080E090E0DC0182179307A407EF
:10052000B50729F000000196A11DB11DF6CF8FEF90
:10053000881A980AA80AB80A91CF47D0A59F900DAB
:10054000B49F900DA49F800D911D11240895A1E2E8
:100550001A2EAA1BBB1BFD010DC0AA1FBB1FEE1F3D
:10056000FF1FA217B307E407F50720F0A21BB30B88
:10057000E40BF50B661F771F881F991F1A9469F704
:1005800060957095809590959B01AC01BD01CF0160
:100590000895052E97FB16F400940FD057FD05D053
:1005A000D6DF07FC02D046F408C050954095309540
:1005B00021953F4F4F4F5F4F0895909580957095CF
:1005C00061957F4F8F4F9F4F0895A29FB001B39FBA
:1005D000C001A39F700D811D1124911DB29F700D4C
:0C05E000811D1124911D0895F894FFCF97
:1005EC00496E69742E2E2E000A4350553A2000484D
:0E05FC007A0A467265713A2000487A200000A3
:00000001FF
