:1000000029C0000042C0000040C000003EC0000007
:100010003CC000003AC0000038C0000036C00000FC
:1000200034C0000032C0000030C000002EC000000C
:100030002CC000002AC0000028C0000026C000001C
:1000400024C0000022C0000020C000001EC000002C
:100050001CC0000011241FBECFE5D4E0DEBFCDBF21
:1000600010E0A0E6B0E0E6E3F6E002C005900D92F5
:10007000AE36B107D9F710E0AEE6B0E001C01D9290
:10008000AE36B107E1F759D2D4C2BACFC1986623D0
:1000900011F0C09A01C0C0989BB3907F892B8BBB95
:1000A000C29A00C000C0C2980895C19A9AB3907FC6
:1000B0009ABB882311F0C09A01C0C098C29A00C0B0
:1000C00000C089B3C2989AB39F609ABBC1988F70E1
:1000D0000895CF93DF93C82FD62F82958F70D6DFE8
:1000E0006D2F8C2F8F70DF91CF91D0CFCF93DF9377
:1000F000C82FDBDFD82FD295D07F8C2FD6DF8D2B6A
:10010000DF91CF91089580E0F1DF87FDFCCF089566
:10011000B89AB99ABA9A8AB38F608ABB8FE295E788
:100120000197F1F700C0000060E083E0AFDF87E0F7
:1001300090E20197F1F700C0000060E083E0A6DFE5
:1001400087EC90E00197F1F700C0000060E083E0E9
:100150009DDF92E69A95F1F700C060E082E096DFBD
:1001600080E0D1DF60E088E2B4DF80E0CCDF60E0F7
:1001700088E0AFDF80E0C7CFFC011082118281E010
:100180008283838386831582148208950895CF9392
:10019000DF93EC01BDDF60E081E09BDF81E0B3DF56
:1001A00060E086E096DF80E0AEDF8A81811102C0E8
:1001B0008CE001C08EE09B8160E0892B8ADF80E0CB
:1001C000A2DF8C81811102C080E201C080E39E81A8
:1001D000911198E0892B9D81911194E060E0892B29
:1001E00078DF80E090DF18821982DF91CF91089547
:1001F0000F931F93CF93DF936230E0F44832D0F433
:10020000FC012081241303C02181261799F0042FBB
:10021000162FEC01842FF0E46F9F800D112460E015
:10022000806857DF0883198380E0DF91CF911F91A9
:100230000F9169CFDF91CF911F910F910895CF93C7
:10024000DF936A3059F4FC01218140E0213011F440
:1002500060E001C061E0DF91CF91CACF262FEC01B1
:1002600061E0822F36DF8881873218F48F5F8883C0
:1002700007C01882898190E001968170992789834F
:1002800080E0DF91CF913FCFEF92FF920F931F93CA
:10029000CF93DF931F92CDB7DEB78C017B01F701BF
:1002A00061917F01662389F0C8014983C8DF4981D4
:1002B0004423A9F390E0EFECF7E03197F1F700C0A9
:1002C00000009F5F9413F7CFEACF0F90DF91CF919B
:1002D0001F910F91FF90EF9008952F923F924F92B0
:1002E0005F926F927F928F929F92AF92BF92CF92C6
:1002F000DF92EF92FF920F931F93CF93DF93CDB7CF
:10030000DEB75C012A013B01022F2DB63EB677FF16
:1003100009C022273327A90124193509460957099D
:1003200012E003C09A01AB0111E08AE0C82ED12C83
:10033000E12CF12CCA01B901A70196013CD121158C
:1003400031054105510511F01F5FF4CFC12ED12CAD
:10035000C60101962DB73EB7281B390B0FB6F8948E
:100360003EBF0FBE2DBF8DB79EB701967C01B30176
:10037000A20177FE07C044275527BA014419550941
:10038000660977099A01CB01112391F04701810E8B
:10039000911CE1E08E1A9108B9012AE030E040E0BA
:1003A00050E009D1605DF40160831150CA01ECCFC7
:1003B00077FE03C08DE2F7018083F701EC0DFD1D90
:1003C0001082402FB701C5015FDF0FB6F8943EBE23
:1003D0000FBE2DBEDF91CF911F910F91FF90EF9037
:1003E000DF90CF90BF90AF909F908F907F906F9055
:1003F0005F904F903F902F9008954F925F926F9231
:100400007F92AF92BF92CF92DF92EF92FF920F93C3
:100410001F93CF93DF93CDB7DEB76C012A013B0169
:10042000F22EADB6BEB601110DC0DB01CA0111E05E
:10043000892F9A2FAB2FBB270097A105B10519F083
:100440001F5FF6CF14E040E060E670E0C6011CDFFD
:10045000412F50E060E070E020E0C6013EDF6AE03E
:10046000C601EDDEE12FEE0FF110EE5FF0E0CF01FF
:1004700001962DB73EB7281B390B0FB6F8943EBF37
:100480000FBE2DBF6DB77EB76F5F7F4FDB01AE0F25
:10049000BF1F1C92FF2049F080E3ADB7BEB7119695
:1004A0008C9388E7DB0111968C933197E60FF71F49
:1004B00080E090E0F12CF11601F1A3019201082EE9
:1004C00004C056954795379527950A94D2F7022F81
:1004D00002950F702F70DF0111970A3010F0095C40
:1004E00001C0005D0C932A3010F0295C01C0205D32
:1004F0002083F39432970896DECF4E2DC601C4DEDA
:100500000FB6F894BEBE0FBEADBEDF91CF911F9166
:100510000F91FF90EF90DF90CF90BF90AF907F90C2
:100520006F905F904F900895FC016283438308951C
:10053000FC016483468325830895EF920F93CF9344
:10054000DF93CDB7DEB727970FB6F894DEBF0FBEA7
:10055000CDBFCE01019610DE40E061E0CE010196F4
:10056000E3DF21E041E060E0CE010196E1DFCE0172
:1005700001960DDE40E066E670E0CE01019684DE75
:1005800084E6E82E01E021E04FE951EF6FE879E0E1
:10059000CE01019632DFCE010196F8DD80E090E0D9
:1005A00027960FB6F894DEBF0FBECDBFDF91CF9177
:1005B0000F91EF900895052E97FB16F400940FD03D
:1005C00057FD05D014D007FC02D046F408C0509562
:1005D0004095309521953F4F4F4F5F4F089590952F
:1005E0008095709561957F4F8F4F9F4F0895A1E241
:1005F0001A2EAA1BBB1BFD010DC0AA1FBB1FEE1F9D
:10060000FF1FA217B307E407F50720F0A21BB30BE7
:10061000E40BF50B661F771F881F991F1A9469F763
:1006200060957095809590959B01AC01BD01CF01BF
:060630000895F894FFCFCD
:0E0636004C656E3A2000544553543A200000A3
:00000001FF
