:1000000029C0000042C0000040C000003EC0000007
:100010003CC000003AC000009FC2000036C0000093
:1000200034C0000032C0000030C000002EC000000C
:100030002CC000002AC0000028C0000026C000001C
:1000400024C0000022C0000020C000001EC000002C
:100050001CC0000011241FBECFE5D4E0DEBFCDBF21
:1000600010E0A0E6B0E0EEE9F6E002C005900D92E7
:10007000A637B107D9F710E0A6E7B0E001C01D929E
:10008000A737B107E1F7D1D108C3BACFC19866232A
:1000900011F0C09A01C0C0989BB3907F892B8BBB95
:1000A000C29A00C000C0C2980895C19A9AB3907FC6
:1000B0009ABB882311F0C09A01C0C098C29A00C0B0
:1000C00000C089B3C2989AB39F609ABBC1988F70E1
:1000D0000895CF93DF93C82FD62F82958F70D6DFE8
:1000E0006D2F8C2F8F70DF91CF91D0CFCF93DF9377
:1000F000C82FDBDFD82FD295D07F8C2FD6DF8D2B6A
:10010000DF91CF91089580E0F1DF87FDFCCF089566
:10011000B89AB99ABA9A8AB38F608ABB8FE295E788
:100120000197F1F700C0000060E083E0AFDF87E0F7
:1001300090E20197F1F700C0000060E083E0A6DFE5
:1001400087EC90E00197F1F700C0000060E083E0E9
:100150009DDF92E69A95F1F700C060E082E096DFBD
:1001600080E0D1DF60E088E2B4DF80E0CCDF60E0F7
:1001700088E0AFDF80E0C7CFFC011082118281E010
:10018000828383838683158214820895CF93DF93BD
:10019000EC01BEDF60E081E09CDF81E0B4DF60E085
:1001A00086E097DF80E0AFDF8A81811102C08CE0BA
:1001B00001C08EE09B8160E0892B8BDF80E0A3DFB4
:1001C0008C81811102C080E201C080E39E81911187
:1001D00098E0892B9D81911194E060E0892B79DF73
:1001E00080E091DF18821982DF91CF9108950F93FB
:1001F0001F93CF93DF936230E0F44832D0F4FC01D8
:100200002081241303C02181261799F0042F162F73
:10021000EC01842FF0E46F9F800D112460E0806872
:1002200058DF0883198380E0DF91CF911F910F91F0
:100230006ACFDF91CF911F910F910895CF93DF93F4
:100240006A3059F4FC01218140E0213011F460E072
:1002500001C061E0DF91CF91CACF262FEC0161E0B0
:10026000822F37DF8881873218F48F5F888307C039
:100270001882898190E0019681709927898380E0B6
:10028000DF91CF9140CFEF92FF920F931F93CF93C7
:10029000DF931F92CDB7DEB78C017B01F70161912F
:1002A0007F01662389F0C8014983C8DF498144235F
:1002B000A9F390E0EFECF7E03197F1F700C0000010
:1002C0009F5F9413F7CFEACF0F90DF91CF911F91EB
:1002D0000F91FF90EF9008952F923F924F925F926F
:1002E0006F927F928F929F92AF92BF92CF92DF9246
:1002F000EF92FF920F931F93CF93DF93CDB7DEB7AB
:100300005C012A013B01022F2DB63EB677FF09C0E2
:1003100022273327A901241935094609570912E074
:1003200003C09A01AB0111E08AE0C82ED12CE12C68
:10033000F12CCA01B901A70196015DD12115310542
:100340004105510511F01F5FF4CFC12ED12CC6011C
:1003500001962DB73EB7281B390B0FB6F8943EBF58
:100360000FBE2DBF8DB79EB701967C01B301A201D0
:1003700077FE07C044275527BA0144195509660975
:1003800077099A01CB01112391F04701810E911C4D
:10039000E1E08E1A9108B9012AE030E040E050E037
:1003A0002AD1605DF40160831150CA01ECCF77FE61
:1003B00003C08DE2F7018083F701EC0DFD1D108273
:1003C000402FB701C5015FDF0FB6F8943EBE0FBEE8
:1003D0002DBEDF91CF911F910F91FF90EF90DF9095
:1003E000CF90BF90AF909F908F907F906F905F90D5
:1003F0004F903F902F900895605D20CFCF93DF9373
:10040000EC0160E081E065DE81E07DDE40E060E0FF
:10041000CE01DF91CF91EBCEFC016283438308953F
:10042000FC016483468325830895CF93DF93CDB782
:10043000DEB727970FB6F894DEBF0FBECDBFCE0153
:1004400001969ADE40E061E0CE010196E5DF21E011
:1004500041E060E0CE010196E3DFCE01019696DE39
:1004600089B7806189BF80E58FBD84E89EE19BBD2F
:100470008ABD8DE08EBD789420E040E052E16AE7CD
:1004800070E0CE01019628DF8AE0F82E0AE010E045
:10049000809160008823E1F310926000CE01019604
:1004A000ADDF40E063E670E0CE010196ECDE409106
:1004B000610050E060E070E020E0CE0101960CDFCA
:1004C0006AE3CE010196BADE20916200809162005B
:1004D00030E06F2D71D0A901491B5109CA01B80143
:1004E00077D0CE01019688DF809162006F2D64D0B5
:1004F000692FCE01019680DF6AE3CE0101969EDE70
:10050000209176008091760030E06F2D55D0A901C2
:10051000491B5109CA01B8015BD0CE0101966CDFBD
:10052000809176006F2D48D0692FCE01019664DF4F
:1005300040E061E0CE0101965ADE40E06CE670E0FA
:10054000CE010196A0DE20E040E052E16AE770E0D3
:10055000CE010196C1DE9CCF1F920F920FB60F9273
:1005600011248F93809176008F5F80937600809125
:1005700076008C33C1F410927600809162008F5F18
:1005800080936200809162008C3369F41092620063
:10059000809161008F5F809361008091610088315C
:1005A00011F41092610081E0809360008F910F90B0
:1005B0000FBE0F901F901895991B79E004C0991FEA
:1005C000961708F0961B881F7A95C9F780950895AD
:1005D00097FB072E16F4009406D077FD08D027D09D
:1005E00007FC05D03EF4909581959F4F0895709536
:1005F00061957F4F0895052E97FB16F400940FD058
:1006000057FD05D028D007FC02D046F408C050950D
:100610004095309521953F4F4F4F5F4F08959095EE
:100620008095709561957F4F8F4F9F4F0895AA1BBE
:10063000BB1B51E107C0AA1FBB1FA617B70710F0CD
:10064000A61BB70B881F991F5A95A9F780959095FF
:10065000BC01CD010895A1E21A2EAA1BBB1BFD010E
:100660000DC0AA1FBB1FEE1FFF1FA217B307E40791
:10067000F50720F0A21BB30BE40BF50B661F771FE9
:10068000881F991F1A9469F76095709580959095C9
:0E0690009B01AC01BD01CF010895F894FFCF8E
:10069E0001160854696D653A202020004672657176
:0606AE003A2020200000AC
:00000001FF
