:1000000029C0000042C0000040C000003EC0000007
:100010003CC000003AC0000038C0000036C00000FC
:1000200034C0000032C0000030C000002EC000000C
:100030002CC000002AC00000E6C0000026C000005E
:1000400024C0000022C0000020C000001EC000002C
:100050001CC0000011241FBECFE5D4E0DEBFCDBF21
:1000600010E0A0E6B0E0ECEAFEE002C005900D92E0
:10007000A03AB107D9F710E0A0EAB0E001C01D92A4
:10008000A63AB107E1F7F9D10FC7BACFFC01128246
:1000900011821082089510BC83E389B980B58E68FF
:1000A00080BD8AB188618AB908955F9BFECF8CB10B
:1000B00008955D9BFECF6CB908950F931F93CF9366
:1000C000DF938C01EB019991992329F0692F6068E6
:1000D000C801EFDFF8CFDF91CF911F910F91089505
:1000E000FC018AE690E09183808313861286118A50
:1000F000138A128A0895FC018AE690E09183808336
:1001000082859385892B19F082859385A0C00895F7
:10011000FC01618B0895FC01738B628B0895CF9372
:10012000DF93EC01598748877F836E83413C8FE1E1
:10013000580730F4CA01880F991F880F991F02C011
:100140008FEF9FEF83D09B878A878A859B85892B3A
:1001500099F081E0888B1A821B821C821D821F8687
:100160001E861D861C868989806C87B98FE886B9B2
:1001700086B1806686B97894DF91CF910895FC01AD
:1001800024B135B182819381A481B581820F931FFF
:10019000A11DB11D82839383A483B5838485958536
:1001A00001969587848724853585868197812817D0
:1001B000390741F5A285B385868597859C012F5F18
:1001C0003F4F378726874281538164817581880F2D
:1001D000991F880F991FA80FB91F4D935D936D93B9
:1001E0007C931397158614861282138214821582CB
:1001F00026853785808591852817390719F4178654
:100200001686108A08951F920F920FB60F9211242E
:100210002F933F934F935F936F937F938F939F930E
:10022000AF93BF93EF93FF9314D1FF91EF91BF91E1
:10023000AF919F918F917F916F915F914F913F917E
:100240002F910F900FBE0F901F90189547C2DEC2DE
:1002500008952F923F924F925F926F927F928F926A
:100260009F92AF92BF92CF92DF92EF92FF920F9345
:100270001F93CF93DF93CDB7DEB72C970FB6F894CB
:10028000DEBF0FBECDBFFC012DB73EB73A87298731
:1002900080859185880F991F880F991FADB7BEB7CC
:1002A000A81BB90B0FB6F894BEBF0FBEADBF2DB7DC
:1002B0003EB72F5F3F4F6089A085B185BA83A98380
:1002C000F8943C832B83590180E090E04085518570
:1002D00084179507A0F402851385A501421B530BD3
:1002E000400F511FDA01CD90DD90ED90FC90D501CB
:1002F000CD92DD92ED92FD925D010196E7CF6623EE
:1003000021F0A685B785BA83A9837894612C712CD6
:10031000412C512C812C912C1B861C86212C312C9C
:10032000A981BA816A167B06F9F0AB81BC814D9137
:100330005D916D917D91BC83AB835A016B019A01F4
:10034000A60160E070E080E090E052016401EB847F
:10035000FC848101ABD129014A016B877C871C0198
:10036000BFEF6B1A7B0ADCCFA288B38886819781A6
:10037000689EF001699EF00D789EF00D1124F887BB
:10038000EF83C12CD12C9501A60160E070E080E0E4
:1003900090E001E072D1D9014D835E833B01F82FDB
:1003A000E92F02E06AD159016A017B018C019D01AC
:1003B0004D815E81B3018F2F9E2F78D15201640150
:1003C000EB84FC848101B7D0AF81B8856D01E12C4D
:1003D000F12CEAE0CC0CDD1CEE1CFF1CEA95D1F7F9
:1003E0001601270156016201E12CF12C00E010E01A
:1003F00097D0B901CA01E985FA850FB6F894FEBF16
:100400000FBEEDBF2C960FB6F894DEBF0FBECDBF6A
:10041000DF91CF911F910F91FF90EF90DF90CF90E0
:10042000BF90AF909F908F907F906F905F904F9014
:100430003F902F90089524E730E0FC013183208322
:100440005ACECF93DF93EC01F6DFCE01DF91CF914F
:10045000FECE8091A0009091A10091CECF93DF932A
:10046000EC013EDE84E790E099838883D093A1007D
:10047000C093A000DF91CF910895CF93DF93CDB7C4
:10048000DEB7E5970FB6F894DEBF0FBECDBFCE0145
:100490004F96E4DF60E0CE014F963ADE60E07AE00E
:1004A000CE014F9638DECE01C396F0DDCE01C39665
:1004B000F2DDCE01C396F9DD682FCE01C396F9DDDA
:1004C00044E650E06EE170E0CE014F9628DE6AE728
:1004D00070E0CE01C396F1DD87E8E82E80E0F82ECB
:1004E0008E010F5F1F4FCE014F96B3DE7F936F9348
:1004F000FF92EF921F930F9318D2B801CE01C396CB
:10050000DCDD8FE19EE40197F1F700C000000F9061
:100510000F900F900F900F900F90E5CF689401C04F
:10052000E8948F929F92CF93DF9356D0DF91CF9133
:100530009F908F900895DF93CF931F930F939A9D71
:10054000F02D219FF00D8B9DF00D8A9DE02DF10D7A
:10055000039FF00D029FE00DF11D4E9DE00DF11D7A
:100560005E9DF00D4F9DF00D7F936F93BF92AF9204
:100570005F934F93D501A3D08B01AC01D7019FD0DE
:10058000EB01E80FF91FD6011FD02F913F91D60143
:1005900096D0C60FD71FE81FF91FAF91BF9114D097
:1005A0002F913F918CD0C60FD71FE81FF91FD6019E
:1005B00086D0E60FF71F9801BE01CF0111240F91DD
:1005C0001F91CF91DF9108957AD0460F571FC81F12
:1005D000D91F08F43196089588249924F401E40180
:1005E000B0E49F93AA279A158B049C04ED05FE05A1
:1005F000CF05D007A10798F4AD2FDC2FCF2FFE2F0A
:10060000E92D982C892E982F872F762F652F542F20
:10061000432F322F2227B85031F7BF9127C01B2E0E
:10062000BF91BB27220F331F441F551F661F771F23
:10063000881F991F881C991CEE1FFF1FCC1FDD1FF0
:10064000AA1FBB1F8A149B04EC05FD05CE05DF0520
:10065000A007B10748F08A189B08EC09FD09CE09EC
:10066000DF09A00BB10B21601A94E1F62EF494017E
:10067000AF01BE01CD01000C08950F93083090F03A
:10068000982F872F762F652F542F432F322F222715
:100690000850F4CF220F331F441F551F661F771FCA
:1006A000881F991F0A95B2F70F9108952A0D3B1DD7
:1006B0004C1D5D1D6E1D7F1D801F911F0895A29F03
:1006C000B001B39FC001A39F700D811D1124911D26
:1006D000B29F700D811D1124911D0895CF93DF935A
:1006E0008230910510F482E090E0E091A400F09156
:1006F000A50020E030E0A0E0B0E0309739F1408183
:10070000518148175907B8F04817590771F4828189
:100710009381109729F013969C938E9312972CC077
:100720009093A5008093A40027C02115310531F0D6
:100730004217530718F0A901DB0101C0EF019A012C
:10074000BD01DF010280F381E02DD7CF21153105F6
:10075000F9F0281B390B2430310580F48A819B8104
:100760006115710521F0FB019383828304C090938E
:10077000A5008093A400FE01329644C0FE01E20F62
:10078000F31F8193919322503109398328833AC012
:100790002091A2003091A300232B41F4209162000C
:1007A000309163003093A3002093A2002091600059
:1007B000309161002115310541F42DB73EB74091CC
:1007C000640050916500241B350BE091A200F0916C
:1007D000A300E217F307A0F42E1B3F0B28173907DD
:1007E00078F0AC014E5F5F4F2417350748F04E0F8D
:1007F0005F1F5093A3004093A2008193919302C086
:10080000E0E0F0E0CF01DF91CF910895CF93DF9347
:10081000009709F487C0FC01329713821282C091BD
:10082000A400D091A500209781F420813181280F68
:10083000391F8091A2009091A3008217930779F548
:10084000F093A300E093A2006DC0DE0120E030E051
:10085000AE17BF0750F412964D915C9113979D010E
:100860004115510509F1DA01F3CFB383A283408129
:100870005181840F951F8A179B0771F48D919C916C
:100880001197840F951F02969183808312968D9104
:100890009C911397938382832115310529F4F0935A
:1008A000A500E093A4003EC0D9011396FC93EE93FB
:1008B00012974D915D91A40FB51FEA17FB0779F4CC
:1008C00080819181840F951F0296D90111969C9386
:1008D0008E938281938113969C938E931297E0E07E
:1008E000F0E08A819B81009719F0FE01EC01F9CFBD
:1008F000CE01029628813981820F931F2091A20098
:100900003091A3002817390769F4309729F4109221
:10091000A5001092A40002C013821282D093A300FB
:10092000C093A200DF91CF910895AEE0B0E0EAE974
:10093000F4E091C20D891E8986E08C831A830983B5
:100940008FEF9FE79E838D83AE01475E5F4F6F8978
:10095000788DCE01019608D0EF81F885E00FF11F68
:1009600010822E96E4E093C2ACE0B0E0E9EBF4E054
:1009700064C27C016B018A01FC01178216828381AB
:1009800081FFB0C1CE0101964C01F7019381F601C0
:1009900093FD859193FF81916F01882309F49EC196
:1009A000853239F493FD859193FF81916F018532F2
:1009B00021F4B70190E0B1D1E8CF512C312C20E0E7
:1009C0002032A0F48B3269F030F4803259F0833257
:1009D00069F420612CC08D3239F0803339F4216004
:1009E00026C02260246023C0286021C027FD27C0C4
:1009F00030ED380F3A3078F426FF06C0FAE05F9EFB
:100A0000300D1124532E13C08AE0389E300D11246E
:100A1000332E20620CC08E3221F426FD5FC120648B
:100A200006C08C3611F4206802C0883641F4F60105
:100A300093FD859193FF81916F018111C1CF982F13
:100A40009F7D9554933028F40C5F1F4FFFE3F9838B
:100A50000DC0833631F0833771F0833509F057C00C
:100A600021C0F801808189830E5F1F4F4424439485
:100A7000512C540114C03801F2E06F0E711CF801C2
:100A8000A080B18026FF03C0652D70E002C06FEF2B
:100A90007FEFC5012C8736D12C0183012C852F7760
:100AA000222E16C03801F2E06F0E711CF801A080F2
:100AB000B18026FF03C0652D70E002C06FEF7FEFAD
:100AC000C5012C8714D12C012C852068222E83018E
:100AD00023FC19C0832D90E048165906A0F4B701F5
:100AE00080E290E01AD13A94F5CFF50127FC859188
:100AF00027FE81915F01B70190E00FD131103A9448
:100B0000F1E04F1A51084114510479F7DEC08436E0
:100B100011F0893631F5F80127FF07C06081718136
:100B2000828193810C5F1F4F08C06081718188278B
:100B300077FD8095982F0E5F1F4F2F76B22E97FF6F
:100B400009C090958095709561957F4F8F4F9F4F0D
:100B50002068B22E2AE030E0A40111D1A82EA818F6
:100B600043C0853729F42F7EB22E2AE030E025C01D
:100B7000F22FF97FBF2E8F36C1F018F4883579F047
:100B8000ADC0803719F0883721F0A8C02F2F206121
:100B9000B22EB4FE0DC08B2D8460B82E09C024FF88
:100BA0000AC09F2F9660B92E06C028E030E005C02D
:100BB00020E130E002C020E132E0F801B7FE07C0DA
:100BC00060817181828193810C5F1F4F06C06081BB
:100BD000718180E090E00E5F1F4FA401D0D0A82E5D
:100BE000A818FB2DFF77BF2EB6FE0BC02B2D2E7F36
:100BF000A51450F4B4FE0AC0B2FC08C02B2D2E7E02
:100C000005C07A2C2B2D03C07A2C01C0752C24FF33
:100C10000DC0FE01EA0DF11D8081803311F4297EA3
:100C200009C022FF06C07394739404C0822F867893
:100C300009F0739423FD12C020FF06C05A2C7314D0
:100C400018F4530C5718732C731460F4B70180E236
:100C500090E02C8762D073942C85F6CF731410F437
:100C6000371801C0312C24FF11C0B70180E390E098
:100C70002C8753D02C8522FF16C021FF03C088E5A6
:100C800090E002C088E790E0B7010CC0822F867820
:100C900051F021FD02C080E201C08BE227FD8DE210
:100CA000B70190E03AD0A51430F4B70180E390E0AA
:100CB00034D05A94F8CFAA94F401EA0DF11D808142
:100CC000B70190E02AD0A110F6CF332009F45DCE11
:100CD000B70180E290E021D03A94F7CFF701868106
:100CE000978102C08FEF9FEF2C96E2E1C2C0FC011A
:100CF0000590615070400110D8F7809590958E0F47
:100D00009F1F0895FC016150704001900110D8F7B9
:100D1000809590958E0F9F1F08950F931F93CF93EB
:100D2000DF93182F092FEB018B8181FD03C08FEF1B
:100D30009FEF20C082FF10C04E815F812C813D81DA
:100D4000421753077CF4E881F9819F012F5F3F4FE1
:100D500039832883108306C0E885F985812F09959A
:100D6000892B29F72E813F812F5F3F4F3F832E83B1
:100D7000812F902FDF91CF911F910F910895FA014C
:100D8000AA27283051F1203181F1E8946F936E7FCA
:100D90006E5F7F4F8F4F9F4FAF4FB1E03ED0B4E0BB
:100DA0003CD0670F781F891F9A1FA11D680F791FFC
:100DB0008A1F911DA11D6A0F711D811D911DA11D0D
:100DC00020D009F468943F912AE0269F112430191D
:100DD000305D3193DEF6CF010895462F4770405DB8
:100DE0004193B3E00FD0C9F7F6CF462F4F70405D67
:100DF0004A3318F0495D31FD4052419302D0A9F7C2
:100E0000EACFB4E0A6959795879577956795BA95BB
:100E1000C9F700976105710508959B01AC010A2E81
:100E200006945795479537952795BA95C9F7620F58
:100E3000731F841F951FA01D08952F923F924F92FC
:100E40005F926F927F928F929F92AF92BF92CF925A
:100E5000DF92EF92FF920F931F93CF93DF93CDB763
:100E6000DEB7CA1BDB0B0FB6F894DEBF0FBECDBFDB
:100E700009942A88398848885F846E847D848C84AC
:100E80009B84AA84B984C884DF80EE80FD800C81B5
:100E90001B81AA81B981CE0FD11D0FB6F894DEBF98
:0C0EA0000FBECDBFED010895F894FFCF08
:100EAC000000A60020000000000000000000280147
:100EBC00000000001B0221022901696E697469613E
:100ECC006C697A65640A0043757272656E7420767B
:100EDC00616C7565202A203130303A2025690D006F
:00000001FF
