:1000000029C0000042C0000040C000003EC0000007
:100010003CC000003AC00000EEC2000036C0000044
:1000200034C0000032C0000030C000002EC000000C
:100030002CC000002AC0000028C0000026C000001C
:1000400024C0000022C0000020C000001EC000002C
:100050001CC0000011241FBECFE5D4E0DEBFCDBF21
:1000600010E0A0E6B0E0E8E6F8E002C005900D92EE
:10007000AE37B107D9F710E0AEE7B0E001C01D928E
:10008000A038B107E1F7DED2EDC3BACFC19866233D
:1000900011F0C09A01C0C0989BB3907F892B8BBB95
:1000A000C29A00C000C0C2980895C19A9AB3907FC6
:1000B0009ABB882311F0C09A01C0C098C29A00C0B0
:1000C00000C089B3C2989AB39F609ABBC1988F70E1
:1000D0000895CF93DF93C82FD62F82958F70D6DFE8
:1000E0006D2F8C2F8F70DF91CF91D0CFCF93DF9377
:1000F000C82FDBDFD82FD295D07F8C2FD6DF8D2B6A
:10010000DF91CF91089580E0F1DF87FDFCCF089566
:10011000B89AB99ABA9A8AB38F608ABB8FE295E788
:100120000197F1F700C0000060E083E0AFDF87E0F7
:1001300090E20197F1F700C0000060E083E0A6DFE5
:1001400087EC90E00197F1F700C0000060E083E0E9
:100150009DDF92E69A95F1F700C060E082E096DFBD
:1001600080E0D1DF60E088E2B4DF80E0CCDF60E0F7
:1001700088E0AFDF80E0C7CFFC011082118281E010
:10018000828383838683158214820895CF93DF93BD
:10019000EC01BEDF60E081E09CDF81E0B4DF60E085
:1001A00086E097DF80E0AFDF8A81811102C08CE0BA
:1001B00001C08EE09B8160E0892B8BDF80E0A3DFB4
:1001C0008C81811102C080E201C080E39E81911187
:1001D00098E0892B9D81911194E060E0892B79DF73
:1001E00080E091DF18821982DF91CF9108950F93FB
:1001F0001F93CF93DF936230E0F44832D0F4FC01D8
:100200002081241303C02181261799F0042F162F73
:10021000EC01842FF0E46F9F800D112460E0806872
:1002200058DF0883198380E0DF91CF911F910F91F0
:100230006ACFDF91CF911F910F910895CF93DF93F4
:100240006A3059F4FC01218140E0213011F460E072
:1002500001C061E0DF91CF91CACF262FEC0161E0B0
:10026000822F37DF8881873218F48F5F888307C039
:100270001882898190E0019681709927898380E0B6
:10028000DF91CF9140CFEF92FF920F931F93CF93C7
:10029000DF931F92CDB7DEB78C017B01F70161912F
:1002A0007F01662389F0C8014983C8DF498144235F
:1002B000A9F390E0EFECF7E03197F1F700C0000010
:1002C0009F5F9413F7CFEACF0F90DF91CF911F91EB
:1002D0000F91FF90EF9008952F923F924F925F926F
:1002E0006F927F928F929F92AF92BF92CF92DF9246
:1002F000EF92FF920F931F93CF93DF93CDB7DEB7AB
:100300005C012A013B01022F2DB63EB677FF09C0E2
:1003100022273327A901241935094609570912E074
:1003200003C09A01AB0111E08AE0C82ED12CE12C68
:10033000F12CCA01B901A701960178D22115310526
:100340004105510511F01F5FF4CFC12ED12CC6011C
:1003500001962DB73EB7281B390B0FB6F8943EBF58
:100360000FBE2DBF8DB79EB701967C01B301A201D0
:1003700077FE07C044275527BA0144195509660975
:1003800077099A01CB01112391F04701810E911C4D
:10039000E1E08E1A9108B9012AE030E040E050E037
:1003A00045D2605DF40160831150CA01ECCF77FE45
:1003B00003C08DE2F7018083F701EC0DFD1D108273
:1003C000402FB701C5015FDF0FB6F8943EBE0FBEE8
:1003D0002DBEDF91CF911F910F91FF90EF90DF9095
:1003E000CF90BF90AF909F908F907F906F905F90D5
:1003F0004F903F902F900895CF93DF93EC0160E0F2
:1004000081E067DE81E07FDE40E060E0CE01DF91E9
:10041000CF91EDCEFC01628343830895FC01648398
:10042000468325830895FC0190937F0080937E008E
:10043000128611861386148615861686168A178AE2
:10044000108E118E108A1786118A128A138A148AC6
:10045000158A1382128211821082148284E690E03F
:10046000A0E0B0E085839683A783B0870895FC0160
:10047000738362835183408324830895CF93DF93F2
:10048000EC017A8769872B873C874D875E871E8AB8
:100490001F8A188E198E188A1F869B01220F331F00
:1004A00040E050E060E072E18AE790E09DD1298B66
:1004B0003A8B4B8B5C8B1D8ADF91CF91089529B7C6
:1004C000206129BF20E52FBDFC01258136814781B0
:1004D000508560E472E48FE090E086D160E072E1E4
:1004E0008AE790E081D13BBD2ABD89E08EBD0895A9
:1004F000DC011296ED91FC911397608121E030E0D0
:10050000A90114960C90149702C0440F551F0A9429
:10051000E2F7462B4083ED91FC91119740811496B0
:100520000C9002C0220F331F0A94E2F72095242377
:100530002083C5CF21E0FC01258B78940895FC0130
:10054000F894158AA081B1812C9181E090E004801B
:1005500002C0880F991F0A94E2F7809582238C933A
:10056000168A178A108E118E108A1786158A08959A
:10057000FC0146895789608D718D83859485A58599
:10058000B685481759076A077B0709F4158A8589D4
:10059000882329F185819681A781B085480F591F4D
:1005A0006A1F7B1F468B578B608F718F2785308921
:1005B000820F931F908B8787A0E0B0E0418952891A
:1005C00063897489481759076A077B0750F4A0812B
:1005D000B1818C9180958C93108A17860895CF01F4
:1005E000AECF089521E1FB013996DC0101900D9217
:1005F0002A95E1F708951F920F920FB60F921124DA
:100600002F933F934F935F936F937F938F939F931A
:10061000AF93BF93EF93FF9380917E0090917F0003
:10062000A7DFFF91EF91BF91AF919F918F917F9144
:100630006F915F914F913F912F910F900FBE0F904F
:100640001F901895CF93DF93CDB7DEB7E2970FB623
:10065000F894DEBF0FBECDBFCE018C968DDDCE01EE
:100660000196E1DE40E060E0CE018C96D3DE21E031
:1006700041E060E0CE018C96D1DECE018C9686DD25
:1006800027E042E350E061E370E0CE010196EFDE47
:1006900020E231EA47E050E060E070E0CE010196F0
:1006A000EDDECE01019624DFCE01019643DFCE01BF
:1006B0008C96A2DE88EEC82E83E0D82EE12CF12C99
:1006C00090E2A92E9EE4B92EBE016F5F7F4FCE014E
:1006D0004B9688DF0B8D1C8D9FA040E060E0CE0123
:1006E0008C9685DD40E060E670E0CE018C96CBDD37
:1006F000492D50E060E070E020E0CE018C96ECDD0A
:1007000040E067E670E0CE018C96BDDD6D8D7E8D9C
:100710008F8D98A1A701960167D0BA01A90120E0A9
:10072000CE018C96D9DD40E06CE670E0CE018C966F
:10073000AADD40E061E0CE018C9659DD40E06FE635
:1007400070E0CE018C969FDDA80160E070E020E0B3
:10075000CE018C96C1DD40E063E770E0CE018C965F
:1007600092DD68A579A58AA59BA5A70196013CD035
:10077000BA01A90120E0CE018C96AEDD40E068E729
:1007800070E0CE018C967FDD91109ECF2FEF84E339
:100790009CE0215080409040E1F700C00000C8017B
:1007A00088519C4FB5010CD020E231EA47E050E07F
:1007B000BC01CE01019662DECE010196BBDE84CF84
:1007C000AA1BBB1B51E107C0AA1FBB1FA617B70777
:1007D00010F0A61BB70B881F991F5A95A9F7809593
:1007E0009095BC01CD010895A1E21A2EAA1BBB1B56
:1007F000FD010DC0AA1FBB1FEE1FFF1FA217B307ED
:10080000E407F50720F0A21BB30BE40BF50B661F02
:10081000771F881F991F1A9469F7609570958095C6
:1008200090959B01AC01BD01CF010895052E97FB6A
:1008300016F400940FD057FD05D0D6DF07FC02D088
:1008400046F408C050954095309521953F4F4F4F45
:100850005F4F089590958095709561957F4F8F4F6C
:080860009F4F0895F894FFCFAB
:10086800506C61793A2000204C3A20006D730046A4
:0E0878003A200020543A20006D73202000002A
:00000001FF
