:1000000029C0000037C0000035C0000033C0000028
:1000100031C000002FC0000081C000002BC00000D4
:1000200029C0000027C0000025C0000023C0000038
:1000300021C000001FC000001DC000001BC0000048
:1000400019C0000017C0000015C0000013C0000058
:1000500011C0000011241FBECFE5D4E0DEBFCDBF2C
:1000600010E0A0E6B0E001C01D92A236B107E1F7B2
:100070007CD07DC0C5CFFC01F894158AA081B181E8
:100080002C9181E090E0048002C0880F991F0A94AF
:10009000E2F7809582238C93168A178A108E118E30
:1000A000108A1786158A0895FC0146895789608D44
:1000B000718D83859485A585B685481759076A078C
:1000C0007B0708F0158A8589882329F18581968127
:1000D000A781B085480F591F6A1F7B1F468B578B1E
:1000E000608F718F27853089820F931F908B878750
:1000F000A0E0B0E0418952896389748948175907A3
:100100006A077B0750F4A081B1818C9180958C9314
:10011000108A17860895CF01AECF08951F920F92CF
:100120000FB60F9211242F933F934F935F936F93CA
:100130007F938F939F93AF93BF93EF93FF938091A0
:10014000600090916100B0DFFF91EF91BF91AF919E
:100150009F918F917F916F915F914F913F912F91DF
:100160000F900FBE0F901F9018958F9AFFCFF894A5
:02017000FFCFBF
:00000001FF
