:100000000C942A000C943F000C943F000C943F0089
:100010000C943F000C943F000C9450000C943F0053
:100020000C943F000C943F000C943F000C943F0054
:100030000C943F000C943F000C943F000C943F0044
:100040000C943F000C943F000C943F000C943F0034
:100050000C943F0011241FBECFE5D4E0DEBFCDBF1E
:1000600010E0A0E6B0E0ECEDF0E002C005900D92EB
:10007000A236B107D9F70E9468000C946C000C946A
:10008000000089B7806189BF80E58FBD81E690E07F
:100090009BBD8ABD8DE08EBD87B3836087BB08950D
:1000A0001F920F920FB60F9211248F939F939091EE
:1000B000600083E089278093600098B39C7F892B40
:1000C00088BB9F918F910F900FBE0F901F90189536
:0C00D0000E9441007894FFCFF894FFCF0D
:0200DC00010021
:00000001FF
