:1000000029C0000042C0000040C000003EC0000007
:100010003CC000003AC00000BAC1000036C0000079
:1000200034C0000032C0000030C000002EC000000C
:100030002CC000002AC0000028C0000026C000001C
:1000400024C0000022C0000020C000001EC000002C
:100050001CC0000011241FBECFE5D4E0DEBFCDBF21
:1000600010E0A0E6B0E0E2E1F4E002C005900D92FD
:10007000AA36B107D9F710E0AAE6B0E001C01D9298
:10008000AC36B107E1F73AD1C2C1BACFCF92EF9205
:100090000F931F93FC01C086728761875487438743
:1000A00036872587108B0787E18A11821082138299
:1000B00081E0868317821482128215821F910F912C
:1000C000EF90CF900895FC01A185B2858C918F604F
:1000D0008C93A385B4858C91807F8C93A585B68500
:1000E0008C918FEF8C93828B838B848B858B08957F
:1000F000CF92DF92EF92FF920F931F93CF93DF93F4
:1001000000D000D0CDB7DEB7FC018481882329F070
:1001100080819181883E934028F480819181803153
:10012000974248F086E8828B8FEA838B8FE2848B3C
:1001300080EC858B9FC0808191817E01B5E0EB0EC4
:10014000F11C00E010E02AE0C22ED12CB6014BD108
:10015000DC01A05ABF4F8C91D7018E937D01CB015A
:10016000009709F042C0958181E0800F911117C07E
:1001700023E030E090EC843061F0D901A81BB10994
:1001800041E050E04C0F5D1FA40FB51F9C938F5FA3
:10019000F2CF8481882319F18FEB898320C043E05B
:1001A00050E09FEF843091F02281682F70E030E0C2
:1001B000082E02C0359527950A94E2F721303105C3
:1001C00019F0278121114BC08F5FECCF84818823E8
:1001D00031F0DE01A01BB10B8FEB13968C9380E006
:1001E00090E043E050E01FEF26C00F5F1F4F043048
:1001F000110509F0ABCFF3CF21E030E02C0F3D1F0C
:10020000280F391FD9012C91D70152962C93529760
:10021000228130E002C0359527956A95E2F720FFEC
:1002200006C052962C9152972F7752962C93019696
:1002300084309105F9F02381BA01681B790B30E015
:10024000062E02C0359527950A94E2F77F01E80E45
:10025000F91E20FFD1CFD70152961C93E8CFDA01C7
:10026000A61BB70B21E030E02C0F3D1FA20FB31FE0
:100270009C93AACF0F900F900F900F90DF91CF918A
:100280001F910F91FF90EF90DF90CF900895CF9343
:10029000DF93EC018E81882319F0CE0129DF1E82C5
:1002A00080E090E041E050E06FEFEB85FC859A0143
:1002B000082E01C0220F0A94EAF720952083EF85CB
:1002C000F889DE01A80FB91F52962C91208320E0F7
:1002D0003989231718F400002F5FFACFEF85F889CA
:1002E00060832989243618F400002F5FFBCF019624
:1002F00084309105D1F6DF91CF910895CF93DF93AC
:10030000CDB7DEB766970FB6F894DEBF0FBECDBF90
:10031000CC24C39482E3E82E05E310E024E330E02C
:1003200048E350E067E370E0CE010196AFDECE0116
:100330000196C9DE1A821982188682E08B8381E0D9
:100340008F831E8210926B0010926A0089B78061C1
:1003500089BF80E58FBD81E690E09BBD8ABD8DE0C1
:100360008EBD789411E020916A0030916B008981F4
:100370009A812817390739F080916A0090916B00B3
:100380009A8389831F83CE01019681DFECCF1F9270
:100390000F920FB60F9211245F936F937F938F93F9
:1003A0009F93AF93BF9380916A0090916B000196E9
:1003B00090936B0080936A0080916A0090916B002B
:1003C00060E177E210D090936B0080936A00BF9158
:1003D000AF919F918F917F916F915F910F900FBE21
:1003E0000F901F901895AA1BBB1B51E107C0AA1FB5
:1003F000BB1FA617B70710F0A61BB70B881F991FC6
:100400005A95A9F780959095BC01CD010895F8946F
:02041000FFCF1C
:0A041200C0F9A4B0999282F880901E
:00000001FF
