:100000000C942A000C9447000C9447000C94470071
:100010000C9447000C9447000C9447000C94470044
:100020000C9447000C9447000C9447000C94470034
:100030000C9447000C9447000C9437030C94470031
:100040000C9447000C9447000C9447000C94470014
:100050000C94470011241FBECFE5D4E0DEBFCDBF16
:1000600010E0A0E6B0E0E4EEF8E002C005900D92EA
:10007000AA36B107D9F712E0AAE6B0E001C01D9296
:10008000A731B107E1F70E94A5030C9470040C940A
:10009000000087B38F6087BB88B3806F88BB84B351
:1000A0008FEF84BB0895EAE6F0E01082118212829D
:1000B00013820895EF92FF920F931F93CF93DF93D4
:1000C00000D000D0CDB7DEB780911502813009F0A5
:1000D000CDC080911302813039F480910F0290914C
:1000E0001002883E934038F480910F0290911002E4
:1000F0008031974268F086E880936A008FEA8093A7
:100100006B008FE280936C0080EC80936D00ACC03C
:100110008E010B5F1F4FE0E0F0E08AE0E82EF12C4B
:1001200080910F0290911002B7010E94D203DC016E
:10013000A05ABF4F8C91D8018E938D0180910F02F0
:1001400090911002B7010E94D20370931002609345
:100150000F0280910F0290911002892B09F051C07B
:100160009091140281E08E0F911118C023E030E0CD
:1001700090EC843061F0F901E81BF10941E050E0B6
:100180004C0F5D1FE40FF51F90838F5FF2CF8091BE
:100190001302813081F58FEB89832DC043E050E05D
:1001A0009FEF8430F1F020911102682F70E030E071
:1001B000082E02C0359527950A94E2F721303105C3
:1001C00071F020911602213051F4DA01A61BB70B11
:1001D00021E030E02C0F3D1FA20FB31F9C938F5FD7
:1001E000E0CF80911302813031F4AE014E1B5F0BE2
:1001F000FA018FEB838380E090E043E050E01FEF53
:1002000020C03196E430F10509F08ACFF4CF21E027
:1002100030E02C0F3D1F280F391FD9012C9120836E
:100220002091110230E002C0359527956A95E2F7DA
:1002300020FF03C020812F77208301968430910511
:1002400099F020911202BA01681B790B30E0062E5A
:1002500002C0359527950A94E2F7FC01E659FF4F55
:1002600020FFD5CF1083E9CF1092150280E090E0F7
:1002700061E070E04FEF9B01082E01C0220F0A944D
:10028000EAF7209528BBFC01E659FF4F208125BBEA
:10029000B6EABA95F1F700C045BB019684309105E6
:1002A00051F70F900F900F900F90DF91CF911F910A
:1002B0000F91FF90EF90089580EC87B98FE886B991
:1002C00086B1806686B9EEE6F0E017821682158266
:1002D0001482108211821282138281E080930602BE
:1002E000789408952F923F924F925F926F927F92EF
:1002F0008F929F92AF92BF92CF92DF92EF92FF9236
:100300000F931F93CF93DF93CDB7DEB7CC59D14076
:100310000FB6F894DEBF0FBECDBF80910602F894F1
:10032000A6E7B0E09E012F5F3F4F390120573E4FB7
:10033000F3014D915D916D917D9141935193619345
:100340007193E217F307A9F7813029F4E091740063
:10035000F091750002C0E4E6F0E0CF56DE4FF9837D
:10036000E883C159D1407894812C912C412C512C97
:10037000B0E0A0E0C756DE4F1882C959D140C6563A
:10038000DE4F1882CA59D140212C312CCF56DE4F76
:10039000E881F981C159D1408E169F0681F1F301A0
:1003A00041915191619171913F015A016B019A0103
:1003B000A60160E070E080E090E05201CB2EDA2EE2
:1003C000C756DE4FE880C959D140C656DE4FF88087
:1003D000CA59D14081010E945E042901B42FA52F82
:1003E000C756DE4F6883C959D140C656DE4F788361
:1003F000CA59D1401C01FFEF8F1A9F0AC7CF920143
:100400004B2F5A2FC756DE4F6881C959D140C65667
:10041000DE4F7881CA59D140C10104E00E944504F1
:100420005201CB2EDA2EC756DE4FE880C959D14093
:10043000C656DE4FF880CA59D14081010E94670438
:1004400002E00E944504022D0E94670459016A01DE
:100450007B01782E192F05E00E944504072D0E948C
:10046000670401E00E9445045201CB2EDA2EC756E4
:10047000DE4FE880C959D140C656DE4FF880CA59D0
:10048000D14081010E94670459016A017B01182F44
:10049000792E03E00E944504012F172D0E94670466
:1004A0005201CB2EDA2EC756DE4FE880C959D14013
:1004B000C656DE4FF880CA59D14081010E945E04C1
:1004C00029013A01C756DE4F6883C959D140C65643
:1004D000DE4F7883CA59D140C556DE4F8883CB5949
:1004E000D140C456DE4F9883CC59D140940140E0AE
:1004F00050E060E070E0CB01CF56DE4F8882C159FA
:10050000D140CE56DE4F3883C259D140CD56DE4F52
:100510004883C359D140CC56DE4F5883C459D1408B
:10052000CB56DE4F6883C559D140CA56DE4F78831B
:10053000C659D140C956DE4F8883C759D140C856E5
:10054000DE4F9883C859D14060E070E080E090E0D1
:1005500003E00E944504CF56DE4FA880C159D14028
:10056000CE56DE4FB880C259D140CD56DE4FC8803E
:10057000C359D140CC56DE4FD880C459D140E12C6C
:10058000F12C00E010E00E94670404E00E944504A2
:1005900000E00E945E0404E00E94450400E00E9426
:1005A000670419014A01B62FA72FF82FE92F04E09D
:1005B0000E94450459016A017B018C019101A4014B
:1005C0006B2F7A2F8F2F9E2F0E945E04CF56DE4F07
:1005D000A880C159D140CE56DE4FB880C259D14013
:1005E000CD56DE4FC880C359D140CC56DE4FD8809F
:1005F000C459D140E12CF12C00E010E00E945E04CF
:1006000059016A017B018C019201A301C756DE4F9B
:100610006881C959D140C656DE4F7881CA59D14048
:10062000C556DE4F8881CB59D140C456DE4F9881E4
:10063000CC59D1400E94E803C901C456DE4F0FB621
:10064000F894DEBF0FBECDBFDF91CF911F910F9108
:10065000FF90EF90DF90CF90BF90AF909F908F90E2
:100660007F906F905F904F903F902F9008951F92D2
:100670000F920FB60F9211242F933F934F935F93D6
:100680006F937F938F939F93EF93FF9384B195B173
:1006900040916E0050916F006091700070917100F8
:1006A000480F591F611D711D40936E0050936F00DC
:1006B000609370007093710080917200909173004C
:1006C000019690937300809372004E9779F5809114
:1006D0007400909175009C012F5F3F4F309375001F
:1006E00020937400880F991F880F991FFC01EA5806
:1006F000FF4F408351836283738310927300109283
:10070000720010926E0010926F00109270001092A2
:1007100071002436310551F4109275001092740066
:1007200080910602813011F410920602FF91EF9140
:100730009F918F917F916F915F914F913F912F91F9
:100740000F900FBE0F901F9018950E945C010E94A1
:1007500049001092120281E0809315021092160255
:100760001092130288EB92E29093100280930F0292
:1007700084E08093110210921402C1E00E94720181
:1007800020910F02309110028217930731F090935D
:10079000100280930F02C0931502F8940E945A0031
:1007A0007894ECCFAA1BBB1B51E107C0AA1FBB1F4B
:1007B000A617B70710F0A61BB70B881F991F5A95ED
:1007C000A9F780959095BC01CD010895689401C06A
:1007D000E8948F929F92CF93DF930E94F403DF916E
:1007E000CF919F908F90089588249924F401E4017B
:1007F000B0E49F93AA279A158B049C04ED05FE058F
:10080000CF05D007A10798F4AD2FDC2FCF2FFE2FF7
:10081000E92D982C892E982F872F762F652F542F0E
:10082000432F322F2227B85031F7BF9127C01B2EFC
:10083000BF91BB27220F331F441F551F661F771F11
:10084000881F991F881C991CEE1FFF1FCC1FDD1FDE
:10085000AA1FBB1F8A149B04EC05FD05CE05DF050E
:10086000A007B10748F08A189B08EC09FD09CE09DA
:10087000DF09A00BB10B21601A94E1F62EF494016C
:10088000AF01BE01CD01000C08950F93083090F028
:10089000982F872F762F652F542F432F322F222703
:1008A0000850F4CF220F331F441F551F661F771FB8
:1008B000881F991F0A95B2F70F9108952A0D3B1DC5
:1008C0004C1D5D1D6E1D7F1D801F911F08952A19EF
:1008D0003B094C095D096E097F09800B910B089556
:0408E000F894FFCFBA
:0A08E400C0F9A4B0999282F8809048
:00000001FF
