:1000000029C0000042C0000040C000003EC0000007
:100010003CC000003AC0000038C0000036C00000FC
:1000200034C0000032C0000030C000002EC000000C
:100030002CC000002AC0000028C0000026C000001C
:1000400024C0000022C0000020C000001EC000002C
:100050001CC0000011241FBECFE5D4E0DEBFCDBF21
:1000600010E0A0E6B0E0EAEFF0E002C005900D92EB
:10007000A636B107D9F710E0A6E6B0E001C01D92A0
:10008000A636B107E1F719D036C0BACFFC0112820B
:1000900011821082089510BC83E389B980B58E68FF
:1000A00080BD8AB188618AB908955F9BFECF8CB10B
:1000B00008955D9BFECF6CB90895CF93DF9300D078
:1000C0001F92CDB7DEB78FEF84BB85BBCE01019603
:1000D000DDDFCE010196DFDFCE010196E6DF85BBD5
:1000E000682FCE010196E5DF8FE19EE40197F1F7DD
:0A00F00000C00000F1CFF894FFCF2C
:0600FA000000660020007A
:00000001FF
