:1000000029C0000042C0000040C000003EC0000007
:100010003CC000003AC0000038C0000036C00000FC
:1000200034C0000032C0000030C000002EC000000C
:100030002CC000002AC0000028C0000026C000001C
:1000400024C0000022C0000020C000001EC000002C
:100050001CC0000011241FBECFE5D4E0DEBFCDBF21
:1000600010E0A0E6B0E0ECEFF0E002C005900D92E9
:10007000A636B107D9F710E0A6E6B0E001C01D92A0
:10008000A636B107E1F719D037C0BACFFC0112820A
:1000900011821082089510BC85E089B980B5866808
:1000A00080BD8AB188618AB908955F9BFECF8CB10B
:1000B00008955D9BFECF6CB90895CF93DF9300D078
:1000C0001F92CDB7DEB78FEF84BB80EF85BBCE012B
:1000D0000196DCDFCE010196DEDFCE010196E5DF81
:1000E00085BB682FCE010196E4DF83EC99E0019790
:0C00F000F1F700C00000F1CFF894FFCF42
:0600FC0000006600200078
:00000001FF
